:020000040000FA
:060000000A128A11FC2F18
:100EB4008312031308100800831203138810080018
:100EC4008312031308140800831203138814080000
:100ED4008316031308158815080083120313080CDE
:100EE400F000700C0139762F080083120313080CEC
:100EF400F000F00C700C01397F2F080083120313EB
:100F04000810831603130810831203138810831622
:100F14000313881008000A128A1180270A128A1102
:100F24000A128A116A270A128A11982F0A128A1140
:100F34006F270A128A11013A031DA12FA22FB52F80
:100F44000A128A1162270A128A110330F3008A30C6
:100F5400F2005530F100F10BAD2FF20BAD2FF30B76
:100F6400AD2FB42FC72F0A128A115A270A128A11D9
:100F74000330F3008A30F2005530F100F10BC02F3A
:100F8400F20BC02FF30BC02FC72F0A128A11772739
:100F94000A128A11013A031DD02FD12FE42F0A120D
:100FA4008A1166270A128A110330F3008A30F2008C
:100FB4005530F100F10BDC2FF20BDC2FF30BDC2F9F
:100FC400E32F982F0A128A115E270A128A1103301E
:100FD400F3008A30F2005530F100F10BEF2FF20BE1
:100FE400EF2FF30BEF2FF62F982F982F982F0A122D
:0C0FF4008A11002883010A128A118D2F37
:02400E00D4EFED
:00000001FF
